S00E00004C69676874732E73726563AB
S11300000C942A000C9447000C9447000C9447006D
S11300100C9447000C9447000C9447000C947C0209
S11300200C9447000C9447000C9447000C94470030
S11300300C9447000C9447000C9447000C94470020
S11300400C945D000C9447000C9447000C944700FA
S11300500C94470011241FBECFE5D8E0DEBFCDBF0E
S113006010E0A0E6B0E0ECE6F6E002C005900D92E8
S1130070A639B107D9F720E0A6E9B0E001C01D9286
S1130080AC3BB207E1F70E9455020C9434030C9484
S11300900000F89480E487B9339A86B1866086B903
S11300A0379A789408958091B4009091B50008959A
S11300B097B1892B87B9369A08951F920F920FB67C
S11300C00F9211248F939F9384B195B19093B500AF
S11300D08093B4009F918F910F900FBE0F901F904B
S11300E0189521E030E0A90102C0440F551F8A95FC
S11300F0E2F72091B6003091B700242B352B3093D2
S1130100B7002093B600089521E030E0A90102C0B1
S1130110440F551F8A95E2F79A01209530958091F6
S1130120B6009091B700282339233093B700209369
S1130130B60008958091B6009091B7000895EF92AB
S1130140FF920F931F93CF93DF930E949A00EC01C9
S11301500097C9F1F12C01E010E06894EE24E4F872
S1130160C0FF2CC098E0F91206C08091B8008E251B
S11301708093B8001FC02091B800C8010F2C02C0A2
S1130180880F991F0A94E2F782278093B80093E0BE
S1130190F91206C083FF0EC08B7F8093B8000AC09B
S11301A082E0F81207C08091B80082FF03C0877F05
S11301B08093B8008F2D90E00E948400F394D6952C
S11301C0C795209769F6DF91CF911F910F91FF900A
S11301D0EF900895DF92EF92FF920F931F93CF93C6
S11301E0DF93EC0101E010E00F2EF3E0DF2EF02DA1
S11301F06894EE24E1F8FF24F39402C01F5F0F5FBC
S1130200212F30E0F901EE0FFF1FE256FF4F40812E
S11302105181440F551F51834083888190E0012E02
S113022002C0959587950A94E2F780FD08C0F9010C
S1130230EE0FFF1FE256FF4F416051834083F901E7
S1130240EE0FFF1FE256FF4F408151814F3F510592
S113025071F4F901EA56FF4F808181112EC0F90132
S1130260EA56FF4FF082C9010E9471002CC04F3F33
S11302708FEF580759F4F901EA56FF4F8081813016
S113028011F5F901EA56FF4FE0821DC0411115C076
S1130290CA018827892B89F0F901EA56FF4F80812A
S11302A0823059F4F901EA56FF4FD082143059F4E0
S11302B088E090E00E947100A1CF452B21F4F90160
S11302C0EA56FF4F1082083008F498CFDF91CF919F
S11302D01F910F91FF90EF90DF9008958091B800E7
S11302E084FF02C088E0089580E008958091B800FA
S11302F082FF09C08091B2009091B300803991408F
S113030020F480E103C080E001C080E02091B200CD
S11303103091B3002F5F3F4F283E93E0390729F017
S11303203093B3002093B20008951092B30010925A
S1130330B20008958091B80083FF09C08091B00095
S11303409091B1008039914020F480E203C080E0B4
S113035001C080E02091B0003091B1002F5F3F4F89
S1130360283E93E0390729F03093B1002093B00080
S113037008951092B1001092B00008958091B800D1
S113038086FF02C080E4089580E008958091B8005B
S113039085FF02C080E8089580E008950E9453001C
S11303A08836924030F08091B80085FF04C082E026
S11303B0089582E0089580E008958091B80085FD55
S11303C007C00E9453008836924020F480E00895CC
S11303D084E0089584E00895CF93DF938091B8007A
S11303E081FF40C08823DCF48091AE009091AF007F
S11303F0883E934050F40E94530088369240B8F5EA
S11304000E94CE0190E0C99637C00E9453008836FE
S1130410924080F50E94CE0190E001962DC012BA60
S11304208FEF81BB0E94CE01C82F0E94DD01D0E076
S11304302196C80FD11D0E946E01C80FD11D0E94C4
S11304407601C80FD11D0E949A01C80FD11D0E94C8
S1130450BE01C80FD11D0E94C6019E01280F311D87
S1130460C9010AC08FEF82BB80E09FEF05C088E31B
S113047090E002C080E09FEF2091AE003091AF0089
S1130480203D374021F41092AF001092AE0020912D
S1130490AE003091AF002F5F3F4F3093AF002093F9
S11304A0AE008095DF91CF9108950E9449000E948B
S11304B062020E94BD020E946A020E94F80280E069
S11304C090E008951ABA8FEF8BBB17BA88BB84BB30
S11304D085BB0895F8948FB58FBD8EB589608EBDA8
S11304E089B7806189BF88B7806188BF8FE396E050
S11304F09BBD8ABD789408951F920F920FB60F92F8
S113050011242F933F934F935F936F937F938F9314
S11305109F93AF93BF93EF93FF930E94CD02FF91FC
S1130520EF91BF91AF919F918F917F916F915F9167
S11305304F913F912F910F900FBE0F901F901895E0
S113054008950895089508950895CF93C091B8002B
S113055086E390E00E94EA000E949F008091B80028
S1130560C827C0FF02C015BA03C00E94EC0185BBB6
S113057080E00E945800CF910895E0E6F0E026E97B
S113058030E080819181908787833996E217F30761
S1130590C1F786E08093B9000895CF93DF93E6E630
S11305A0F0E02CE930E041E0DF018081813039F076
S11305B081819281009749F00197928381831196FA
S11305C08D919C911297892B49F44C93ED012497BA
S11305D08881998112969C938E9311973996E2178C
S11305E0F30711F786E08093B900DF91CF91089566
S11305F0C2E01092B90080E090E0FC01EE0FFF1F12
S1130600EE0FFF1FEE0FFF1FE80FF91FE05AFF4F19
S11306102681213009F5FC01EE0FFF1FEE0FFF1FAD
S1130620EE0FFF1F8E0F9F1FFC01E05AFF4FC68382
S11306300480F581E02D09958091B90090E0FC01DA
S1130640EE0FFF1FEE0FFF1FEE0FFF1F8E0F9F1FFA
S1130650FC01E05AFF4F16828091B9008F5F8093AE
S10F0660B900863030F6C8CFF894FFCF04
S113066C00000A00A50200000001003200A00200F4
S113067C000002006400A1020000000300C800A2F4
S113068C020000000400F401A3020000000500E8CD
S109069C03A402000000AB
S9030000FC
